:020000040000FA
:1000000080313028FF3F08007E1480310B1F2E28DE
:100010002100931C12282000931C122895310625DC
:1000200080312E282100131C1C282000131C1C28A2
:1000300095310A2580312E282100911D2628200087
:10004000911D26288B31302380312E282100131E4C
:100050002E282000131E2E289331F4237E10090031
:10006000803132285530DF00203084000030850098
:100070002A308B312A238031A03084000030850063
:1000800027308B312A2380317E102000472894317D
:100090003A2480318B170B17AB302100C700093091
:1000A000C80016248031682080310E158E140E147D
:1000B0001B248031652080312100460B5C28C6015D
:1000C0008A238031C12080315C2822008D160800EF
:1000D0002000C901C801C601B001B101B201B301DC
:1000E000AC01AD01AE01AF01A801A901AA01AB01AC
:1000F000A401A501A601A7010130A000A101A20150
:10010000A301C301C201C1012100C5012000BB013F
:100110002100C401C301C2012000BA01B901C0011C
:10012000BF01BE01BD01BC012100B301B401080043
:1001300048080339031D08003F08031DA628370897
:100140004306031908004308B7000E2B3F0834028A
:10015000031C080037084306031908004308370248
:10016000031CB70A37084302031CB70337080E23E2
:1001700080312000370843060130031DC0287C2B46
:10018000852B20003F080319D8289820803132227F
:1001900080310822803120003408B40A2100D600C2
:1001A00020003F0821005602031CD8282000B4017B
:1001B00021003E08BE0AD6000B305602031C080080
:1001C000BE01E62080317E2180313129262903308D
:1001D000200048052100CB00023A031DF228BD0192
:1001E000BD0A002A0330200048052100CB00033A55
:1001F000031D080002302100BD0008001230E52177
:100200004708CB004808CC00CC36CB0CCC36CB0C06
:100210004B082000C300080020000E1D080001301C
:10022000C300CB218031C81D1629D4210330210001
:10023000BD00080020000E190800C3010230CB21C8
:100240008031481EFA28D4218031FA283D088400E4
:100250000430040203180800903104354C3E82003B
:10026000080072290330200046052100CB00023A25
:10027000031D3D29BB01BB0A002A033020004605AF
:100280002100CB00033A031D080002302100BB000F
:1002900008001030E5214708CB004808CC00CC36D8
:1002A000CB0CCC36CB0C4B082000C1000800200042
:1002B0000E1C08000130C1001030CB218031C61D5A
:1002C0006229D42103302100BB00080020000E1851
:1002D0000800C1012030CB218031461E4529D421A0
:1002E0008031452921003B088400043004020318B2
:1002F000080089310435A23E82000800BF2903307E
:10030000200047052100CB00023A031D8A29BC01C9
:10031000BC0A002A0330200047052100CB00033A25
:10032000031D080002302100BC0008001130E52147
:100330004708CB004808CC00CC36CB0CCC36CB0CD5
:100340004B082000C200080020008E1C080001306D
:10035000C2000430CB218031C71DAF29D421033026
:100360002100BC00080020008E180800C2010830DF
:10037000CB218031471E9229D4218031922921003E
:100380003C0884000430040203180800903104354E
:10039000443E820008002100C9002000C50421005D
:1003A0008030C701C800ED2B200030083205210045
:1003B000C7002000310833052100C8004708480461
:1003C0000319080022008D1208002100CA00C9008C
:1003D000C90DC90D1D084906033949069D001D14A4
:1003E0000D30890BF129000021009D149D18F6297C
:1003F0001C08C800C7011B08C7070318C80A080063
:1004000001309D00E0309E009F019B019C0108008F
:10041000200046080339031D08003F08031D172A62
:1004200035084106031908004108B5005C2A3F0859
:100430003402031C0800350841060319080041086E
:100440003502031CB50A35084102031CB503350803
:100450005C2280312000350841060430031D312A1A
:100460007C2B852B200047080339031D08003F081B
:10047000031D412A36084206031908004208B60047
:10048000B52A3F083402031C080036084206031947
:10049000080042083602031CB60A36084202031C52
:1004A000B6033608B52280312000360842060230F5
:1004B000031D5B2A7C2B852B2100D5005508031DCD
:1004C000632A0E1408000E1065305502031C6A2AB8
:1004D0006430D5005508FF3ECD00CE01CD35CE0DA0
:1004E00020003C082100C700C830C801C900CA016B
:1004F000672380311E30CF008430D00047084F077B
:10050000D1004808503DD20051084D0784005208E0
:100510004E3D8500003FD300013FD4005408260023
:10052000920021005508FF3ECD00CE01CD35CE0D05
:1005300020003C082100C700C830C801C900CA011A
:1005400067231E30CF008430D00047084F07D1000A
:100550004808503DD20051084D07840052084E3DD6
:10056000850000082600910008002100D5005508EC
:10057000031DBC2A8E1408008E1065305502031C22
:10058000C32A6430D5005508FF3ECD00CE01CD35DD
:10059000CE0D20003D082100C700C830C801C900A9
:1005A000CA01672380311E30CF008430D000470855
:1005B0004F07D1004808503DD20051084D07840034
:1005C00052084E3D8500003FD300013FD40054083F
:1005D0002500960021005508FF3ECD00CE01CD3507
:1005E000CE0D20003D082100C700C830C801C90059
:1005F000CA0167231E30CF008430D00047084F0760
:10060000D1004808503DD20051084D0784005208DF
:100610004E3D850000082500950008002100D5000A
:100620005508031D152B0E1508000E1165305502D7
:10063000031C1C2B6430D5005508FF3ECD00CE01B5
:10064000CD35CE0D20003E082100C700C830C801BE
:10065000C900CA01672380311E30CF008430D0002A
:1006600047084F07D1004808503DD20051084D07B8
:10067000840052084E3D8500003FD300013FD40066
:1006800054082500920021005508FF3ECD00CE0100
:10069000CD35CE0D20003E082100C700C830C8016E
:1006A000C900CA0167231E30CF008430D00047083C
:1006B0004F07D1004808503DD20051084D07840033
:1006C00052084E3D85000008250091000800CB012E
:1006D000CC01471C6F2B4908CB074A08CC3DC935D4
:1006E000CA0DC836C70C47084804031D692B4C08BF
:1006F000C8004B08C70008002100CA004A092000B2
:10070000C4054030CB218031D4292100C70020000E
:10071000C404080000303002323003192F020318DD
:10072000942BAF0A0319B00A8931AE218031A0237E
:100730008A31E4228031F5238B3107239431172C41
:1007400032083402031DA62B310833020318AB2BE9
:100750000430BA00E22BB10A0319B20AE22BB1014C
:10076000B201200B0800BA01BA0A08002008031DD4
:1007700008000230BA000800200B08000330BA005D
:1007800008002008031D08000430B101B201BA01BD
:10079000C701C800ED238031D4290230B101B20174
:1007A000C701C800ED2380312100200BDA2B053072
:1007B000BA00CC2B0130C72BB101B2012008031DB8
:1007C0000800DA2B3A0884000630040203180800F7
:1007D00089310435963E8200080047082000B204A3
:1007E000210048082000B30408000C2C210B08004D
:1007F0000830B701B70AC700C801ED238031D429FA
:100800002108031D08000430B701C700C801ED230B
:100810008031D429B701080021003708003A0319B4
:10082000F62B013A0319002C0A2C08004808D800BE
:100830004708D7000800280013140800F5340334D3
:10084000EB340334E0340334D6340334CC3403348F
:10085000C2340334B7340334AD340334A334033423
:10086000993403348E340334843403347A340334B7
:1008700070340334663403345B340334513403344A
:10088000473403343D3403343234033428340334DE
:100890001E3403341434033409340334FF34023473
:1008A000F5340234EB340234E1340234D634023409
:1008B000CC340234C2340234B8340234AD3402349D
:1008C000A3340234993402348F3402348434023431
:1008D0007A34023470340234663402345C340234C4
:1008E00051340234473402343D3402343334023458
:1008F000283402341E340234143402340A340234EC
:10090000FF340134F5340134EB340134E134013483
:10091000D7340134CC340134C2340134B834013416
:10092000AE340134A3340134993401348F340134AA
:10093000853401347B34013470340134663401343D
:100940005C34013452340134473401343D340134D1
:1009500033340134293401341E3401341434013465
:100960000A34013400340134F6340034EB340034FA
:10097000E1340034D7340034CD340034C234003490
:10098000B8340034AE340034A43400349934003424
:100990008F340034853400347B34003471340034B7
:1009A000663400345C34003452340034483400344B
:1009B0003D34003433340034293400341F340034DF
:1009C000143400340A34003400340034FF34033467
:1009D000FE340334FD340334FC340334FA3403347A
:1009E000F9340334F6340334F4340334F234033486
:1009F000EF340334EC340334E8340334E5340334A3
:100A0000E1340334DD340334D9340334D5340334CE
:100A1000D0340334CC340334C7340334C134033406
:100A2000BC340334B6340334B1340334AB3403344C
:100A3000A43403349E34033498340334913403349F
:100A40008A340334833403347B34033474340334FE
:100A50006C340334643403345C340334543403346A
:100A60004C340334433403343A34033431340334E0
:100A7000283403341F340334163403340C34033461
:100A800002340334F8340234EE340234E4340234F1
:100A9000D9340234CF340234C4340234B934023489
:100AA000AE340234A2340234973402348B3402342C
:100AB0007F34023473340234673402345B340234DA
:100AC0004E34023442340234353402342834023491
:100AD0001B3402340D34023400340234F234013455
:100AE000E5340134D7340134C9340134BA34013423
:100AF000AC3401349D3401348F34013480340134FA
:100B000071340134623401345234013443340134D9
:100B100033340134233401341434013403340134C4
:100B2000F3340034E3340034D2340034C2340034BB
:100B3000B1340034A03400348F3400347D340034B8
:100B40006C3400345A3400344834003437340034C0
:100B5000253400341234003400340034FF340334BC
:100B6000FF340334FE340334FD340334FC340334E3
:100B7000FB340334FA340334F8340334F7340334E5
:100B8000F5340334F3340334F0340334EE340334F3
:100B9000EB340334E8340334E5340334E134033410
:100BA000DE340334DA340334D6340334D234033439
:100BB000CD340334C9340334C4340334BF34033470
:100BC000BA340334B4340334AF340334A9340334B3
:100BD000A33403349D340334963403349034033403
:100BE00089340334823403347A3403347334033461
:100BF0006B340334633403345B34033453340334CD
:100C00004B34033442340334393403343034033442
:100C1000273403341D3403341334033409340334C8
:100C2000FF340234F5340234EA340234E03402345E
:100C3000D5340234CA340234BE340234B3340234FC
:100C4000A73402349B3402348F34023482340234A9
:100C500076340234693402345C3402344F34023462
:100C60004134023434340234263402341834023429
:100C70000A340234FB340134ED340134DE340134FF
:100C8000CF340134C0340134B0340134A0340134E1
:100C900091340134813401347034013460340134CE
:100CA0004F3401343E3401342D3401341C340134CA
:100CB0000A340134F9340034E7340034D5340034D4
:100CC000C2340034B03400349D3400348A340034EB
:100CD0007734003464340034503400343C3400340D
:100CE000293400341434003400340034FF34033425
:100CF000FF340334FF340334FE340334FE3403344E
:100D0000FD340334FC340334FB340334FA34033449
:100D1000F9340334F7340334F5340334F43403344E
:100D2000F1340334EF340334ED340334EA34033460
:100D3000E7340334E5340334E1340334DE3403347C
:100D4000DA340334D7340334D3340334CF340334A4
:100D5000CA340334C6340334C1340334BC340334DA
:100D6000B7340334B1340334AC340334A63403341D
:100D7000A034033499340334933403348C3403346F
:100D8000853403347E340334773403346F340334CE
:100D9000673403345F340334573403344E3403343C
:100DA000463403343D340334333403342A340334B7
:100DB00020340334163403340C3403340234033443
:100DC000F7340234EC340234E1340234D6340234E1
:100DD000CA340234BF340234B2340234A63402348A
:100DE0009A3402348D340234803402347234023442
:100DF0006534023457340234493402343B3402340B
:100E00002C3402341D3402340E340234FF340134E5
:100E1000F0340134E0340134D0340134BF340134CF
:100E2000AF3401349E3401348D3401347C340134C8
:100E30006A340134583401344634013434340134D2
:100E4000213401340E340134FB340034E7340034EF
:100E5000D4340034C0340034AB340034973400341C
:100E6000823400346D340034583400344234003459
:100E70002C3400341634003400340034FF3403348E
:100E8000FF340334FF340334FF340334FE340334BB
:100E9000FE340334FD340334FD340334FC340334B2
:100EA000FB340334FA340334F9340334F7340334B1
:100EB000F6340334F4340334F2340334F0340334BA
:100EC000EE340334EC340334EA340334E7340334CB
:100ED000E4340334E1340334DE340334DA340334E9
:100EE000D7340334D3340334CF340334CB34033412
:100EF000C6340334C1340334BD340334B73403344B
:100F0000B2340334AD340334A7340334A13403348E
:100F10009B340334943403348E34033487340334E1
:100F20007F34033478340334703403346834033446
:100F300060340334583403344F34033446340334B8
:100F40003D340334343403342A340334203403343A
:100F5000163403340B34033401340334F6340234CE
:100F6000EA340234DF340234D3340234C734023476
:100F7000BA340234AD340234A0340234933402342F
:100F800086340234783402346A3402345B340234F6
:100F90004C3402343D3402342E3402341E340234D4
:100FA0000E340234FE340134EE340134DD340134C5
:100FB000CB340134BA340134A834013496340134CA
:100FC00084340134713401345E3401344A340134E0
:100FD00037340134233401340E340134FA3400340C
:100FE000E5340034CF340034BA340034A43400344F
:100FF0008D340034763400345F34003448340034A7
:10100000303400341834003400340034FF340334F6
:10101000FF340334FF340334FF340334FF34033428
:10102000FE340334FE340334FE340334FD3403341D
:10103000FC340334FC340334FB340334FA34033417
:10104000F9340334F8340334F6340334F534033418
:10105000F3340334F1340334EF340334ED34033424
:10106000EB340334E9340334E6340334E334033437
:10107000E0340334DD340334DA340334D634033457
:10108000D2340334CE340334CA340334C634033484
:10109000C1340334BC340334B7340334B2340334BE
:1010A000AC340334A7340334A13403349A34033406
:1010B000943403348D340334863403347F3403345E
:1010C000773403346F340334673403345F340334C8
:1010D000563403344D340334443403343B34033442
:1010E00031340334273403341C34033412340334CE
:1010F00007340334FC340234F0340234E434023470
:10110000D8340234CB340234BE340234B134023425
:10111000A4340234963402348834023479340234EC
:101120006A3402345B3402344C3402343C340234CA
:101130002B3402341B3402340A340234F8340134C0
:10114000E7340134D5340134C2340134B0340134CD
:101150009C340134893401347534013461340134F0
:101160004C34013437340134213401340B3401342C
:10117000F5340034DE340034C7340034B034003485
:101180009834003480340034673400344E340034F2
:10119000343400341A34003400340034FF3403345F
:1011A000FF340334FF340334FF340334FF34033497
:1011B000FF340334FE340334FE340334FE3403348A
:1011C000FD340334FD340334FC340334FC34033481
:1011D000FB340334FA340334F9340334F83403347D
:1011E000F7340334F5340334F4340334F234033481
:1011F000F0340334EE340334EC340334EA3403348F
:10120000E7340334E5340334E2340334DF340334A5
:10121000DC340334D8340334D5340334D1340334C8
:10122000CD340334C9340334C4340334C0340334F8
:10123000BB340334B6340334B0340334AB34033436
:10124000A53403349F340334983403349234033484
:101250008B340334833403347C34033474340334E4
:101260006C340334643403345B3403345234033455
:10127000493403343F340334353403342B340334DA
:1012800020340334163403340A340334FF34023474
:10129000F3340234E6340234DA340234CD34023426
:1012A000BF340234B2340234A434023495340234EC
:1012B00086340234773402346734023457340234CB
:1012C00047340234363402342534023413340234C1
:1012D00001340234EE340134DB340134C8340134D7
:1012E000B4340134A03401348B3401347634013405
:1012F000603401344A340134343401341D3401344F
:1013000005340134ED340034D5340034BC340034B9
:10131000A3340034893400346E340034543400343F
:10132000383400341C340034003400348331AF2BA3
:101330008331B62B8331BC2B8331C12B8331CD2B31
:101340008331DC2B8131322981314929813157297F
:1013500081316629FF3FC601C60A0800003020001F
:101360000D1A01302100A500003020008E1B013035
:101370002100A600003020000C1A01302100A70037
:10138000003020000E1B01302100A800003020009A
:101390008E1901302100A900C7014708A53E86002B
:1013A00087010108031DE8294708AA3E86000108B5
:1013B000810A803A7B3E031CFA294708AA3E860030
:1013C000053081004708A03E86008101810AFA2984
:1013D0004708AA3E8600870101088103803A7F3EC4
:1013E0000318FA294708AA3E860081014708A03E53
:1013F000860081010530C70A470203180800CD297D
:101400008B31992B8B319B2B8B319D2B8B319F2BD0
:101410008B31A12B8B31A32B8B31A52B8B31A72BA0
:101420008B31AD2B8B31B32B8B31B52B8B31B72B54
:101430008B31B92B8B31BB2B8B31BD2B8B31BF2B20
:101440008B31C12B8B31C32B8B31C52B8B31C72BF0
:101450008B31C92B8B31CB2B8B31CD2B8B31CF2BC0
:101460008B31D12B8B31D32B8B31D52B8B31D72B90
:101470008B31D92B8B31DB2B8B31DD2B8B31DF2B60
:101480008B31E12B8B31E32B8B31EA2B8B31EA2B28
:101490008B31EA2B8B31EA2B8B31EA2B8B31EA2B08
:1014A0008B31EA2B8B31EA2B8B31EA2B8B31EA2BF8
:1014B0008B31EA2B8B31EA2B8B31EA2B8B31EA2BE8
:1014C0008B31EA2B8B31EA2B8B31EA2B8B31EA2BD8
:1014D0008B31EA2B8B31EA2B8B31EA2B8B31EA2BC8
:1014E0008B31EA2B8B31EA2B8B31EA2B8B31EA2BB8
:1014F0008B31EA2B8B31EA2B8B31EA2B8B31EA2BA8
:101500008B31EA2B8B31EA2B8B31EA2B8B31EA2B97
:101510008B31EA2B8B31EA2B8B31EA2B8B31EA2B87
:101520008B31EA2B8B31EA2B8B31EA2B8B31EA2B77
:101530008B31EA2B8B31EA2B8B31EA2B8B31EA2B67
:101540008B31EA2B8B31EA2B8B31EA2B8B31EA2B57
:101550008B31EA2B8B31EA2B8B31EA2B8B31EA2B47
:101560008B31EA2B8B31EA2B8B31EA2B8B31EA2B37
:101570008B31EA2B8B31EA2B8B31EA2B8B31EA2B27
:101580008B31EA2B8B31EA2B8B31EA2B8B31EA2B17
:101590008B31EA2B8B31EA2B8B31EA2B8B31EA2B07
:1015A0008B31EA2B8B31EA2B8B31EA2B8B31EA2BF7
:1015B0008B31EA2B8B31EA2B8B31EA2B8B31EA2BE7
:1015C0008B31E52B8B31E72BFD2A230B08000230F2
:1015D000B801B80AC700C8018331ED238131D4298D
:1015E0002308031D0800B801C701C70AC8018331D9
:1015F000ED238131D429B801080021003808003AD0
:101600000319E52A013A0319F02AFB2A0800202BC6
:10161000220B08002030B601B60AC700C80183318A
:10162000ED238131D4292208031D08001030B601B2
:10163000C700C8018331ED238131D429B6010800E8
:1016400021003608003A0319082B013A0319132B1D
:101650001E2B0800640080010131890B2B2B003404
:101660009111240011082000D0002400141D3F2BEC
:10167000941A161F3D2B0330472B0130472B941A29
:10168000432B0030472B20005008DF0002304B2353
:101690002400151608002000CF00822B2100BF0176
:1016A000BF0A080020005F08B800692B20005F080F
:1016B000CD0038088C3115248B312000B80A692BF5
:1016C00021003F08003A0319562B013A0319522B07
:1016D000562B2100BF0108003808972324009100F1
:1016E0002000B80A08002100410B7C2B8D238B3190
:1016F00091238B312100C101400B0800942321006C
:10170000C00108004F0884000430040203180800D8
:1017100090310435543E820008002000B201B3012C
:10172000080022008D1608002000C5010800F10005
:10173000EC2B4908E82B4808E82B4708E82B46081B
:10174000E82B3108E82B3008E82B3308A82B3208A7
:10175000F20001302100C100F62B4508F2000130F3
:101760002100C000F62B4408E82B2F08E82B2E0898
:10177000E82B2D08E82B2C08E82B2B08E82B2A084F
:10178000E82B2908E82B2808E82B2708E82B26084F
:10179000E82B2508E82B2408E82B2308E82B22084F
:1017A000E82B2108E82B2008E82B4308E82B420807
:1017B000E82B4108E82B4008E82B3F08E82B3E08BF
:1017C000E82B3D08E82B3C08E82B5B30E82B113078
:1017D000F200F62BF201F62B71088400723004023D
:1017E0000318EA2B8A310435003E820080307102F2
:1017F000031C042C20003B08031D012C7108803EB3
:10180000022C71080624F20072080800F000092C6E
:101810002000640031009518082C151770089100FD
:1018200070309200151413080800CE00C02C4D082B
:10183000C900C6278C3160278C31CA2C4D08C800DE
:10184000DD248C31CA2C4D08C7006F268C31CA2C80
:101850004D08C600E7268C31CA2C4D08B100CA2CB1
:101860004D08B000CA2C4D08AF00CA2C4D08AE0080
:10187000CA2C4D08AD00CA2C4D08AC00CA2C4D082E
:10188000AB00CA2C4D08AA00CA2C4D08A900CA2CCE
:101890004D08A800CA2C4D08A700CA2C4D08A60068
:1018A000CA2C4D08A500CA2C4D08A400CA2C4D080E
:1018B000A300CA2C4D08A200CA2C4D08A100CA2CB6
:1018C0004D08A000CA2C4D08C30065304302031C1C
:1018D0006B2C6430C300933184238C31CA2C4D08A7
:1018E000C20065304202031C772C6430C200933181
:1018F000A0238C31CA2C4D08C10065304102031C65
:10190000832C6430C1009331BC238C31CA2C4D0828
:10191000C0004008F0000A30F101F200F3014E2649
:101920008C3171082100B4007008B300003034021B
:10193000063003193302031CCA2CFB30B307FF30F7
:10194000B43DCA2C4D08BF00CA2C4D08BE0008305B
:101950003E02031CCA2C0730BE00CA2C4D08BD0035
:1019600008303D02031CCA2C0730BD00CA2C4D08AC
:10197000BC0008303C02031CCA2C0730BC00CA2C37
:101980004E088400223004020318CA2C903104351A
:10199000003E8200803020004E02031C08003B08FD
:1019A000031DD82C4D08F0004E08803E9331D82BF3
:1019B0004D08F0004E089331D82B25009301553087
:1019C0003C008F00AA308F000F10E0303D00A205D0
:1019D00055303C008F00AA308F000F141C2D2300BF
:1019E0000E1122000E1521000E1155303C008F0003
:1019F000AA308F000F103D002208E0390C38A200F9
:101A000055303C008F00AA308F000F1463268C31B4
:101A10000030F7258C31362D23000E1121000E11D8
:101A200025000E11362D21000E1523001A2D23003E
:101A30000E1121000E15362D200048080339CB0069
:101A4000CC014C08003A0319262D362D4B08840092
:101A5000043004020318362D903104356C3E8200A8
:101A600024000E11080024000E150800200048086C
:101A70000439CB00CC014C08003A0319402D482D05
:101A80004B08003A0319302D043A0319332D482D21
:101A900008002000CA004A08031D512D21000E1421
:101AA000080021000E10653020004A02031C5A2D48
:101AB0006430CA004A08FF3EF600F701F635F70D1C
:101AC0003C08F000C830F101F200F3014E268C31E1
:101AD0001E30F8008430F90070087807FA007108A9
:101AE000793DFB007A08760784007B08773D850006
:101AF000003FFC00013FFD002600920020004A0844
:101B0000FF3EF600F701F635F70D3C08F000C8304F
:101B1000F101F200F3014E261E30F8008430F90086
:101B200070087807FA007108793DFB007A0876079B
:101B300084007B08773D850000082600910008009E
:101B40002000CA004A08031DA82D21008E14080099
:101B500021008E10653020004A02031CB12D643034
:101B6000CA004A08FF3EF600F701F635F70D3D08BA
:101B7000F000C830F101F200F3014E268C311E3026
:101B8000F8008430F90070087807FA007108793D90
:101B9000FB007A08760784007B08773D8500003FCC
:101BA000FC00013FFD002500960020004A08FF3E92
:101BB000F600F701F635F70D3D08F000C830F101E9
:101BC000F200F3014E261E30F8008430F900700850
:101BD0007807FA007108793DFB007A0876078400DF
:101BE0007B08773D8500000825009500080020004F
:101BF000CA004A08031DFF2D21000E150800210010
:101C00000E11653020004A02031C082E6430CA0001
:101C10004A08FF3EF600F701F635F70D3E08F000E2
:101C2000C830F101F200F3014E268C311E30F8006D
:101C30008430F90070087807FA007108793DFB00DC
:101C40007A08760784007B08773D8500003FFC001A
:101C5000013FFD002500920020004A08FF3EF600EB
:101C6000F701F635F70D3E08F000C830F101F2003B
:101C7000F3014E261E30F8008430F9007008780712
:101C8000FA007108793DFB007A08760784007B082A
:101C9000773D85000008250091000800F401F5015A
:101CA000701C562E7208F4077308F53DF235F30DDB
:101CB000F136F00C70087104031D502E7508F10008
:101CC0007408F00008008F30250093000330920064
:101CD000FF3091001F08FC3901389F0008002500E3
:101CE000970155303C008F00AA308F000F10E03074
:101CF0003D00A10555303C008F00AA308F000F1425
:101D0000AE2E23008E1022008E1421008E1055302E
:101D10003C008F00AA308F000F103D002108E039F1
:101D20000C38A10055303C008F00AA308F000F14F2
:101D3000DB268C310030A0258C31C82E23008E107C
:101D400021008E1025008E10C82E21008E14230035
:101D5000AC2E23008E1021008E14C82E20004708C0
:101D60000339CB00CC014C08003A0319B82EC82E19
:101D70004B088400043004020318C82E9031043547
:101D8000643E820024008E10080024008E14080097
:101D9000200047080439CB00CC014C08003A031955
:101DA000D22EDA2E4B08003A0319C22E043A031938
:101DB000C52EDA2E08008F302500970003309600DC
:101DC000FF3095001F08F33904389F0008002600F3
:101DD000930155303C008F00AA308F000F10E03087
:101DE0003D00A00555303C008F00AA308F000F1435
:101DF000262F23000E1022000E1421000E10553045
:101E00003C008F00AA308F000F103D002008E03901
:101E10000D38A00055303C008F00AA308F000F1401
:101E200053278C31003049258C31402F23000E1070
:101E300021000E1025000E10402F21000E1423004B
:101E4000242F23000E1021000E14402F20004608DE
:101E50000339CB00CC014C08003A0319302F402F36
:101E60004B088400043004020318402F90310435DD
:101E70005C3E820024000E10080024000E140800AE
:101E8000200046080439CB00CC014C08003A031965
:101E90004A2F522F4B08003A03193A2F043A0319DC
:101EA0003D2F522F08008F30260093000330920000
:101EB000FF30910025001F08CF3910389F0008001F
:101EC00042085530031D772F3C008F00AA308F0049
:101ED0000F102908E0391438A9002808E03915380E
:101EE000A80055308F00AA308F000F14892F3C00B6
:101EF0008F00AA308F000F102908E0391538A9008B
:101F00002808E0391438A80055308F00AA308F0017
:101F10000F142100430B8F2F24008D12912F2400CA
:101F20008D1622008D162100440B992F9F278C318E
:101F30009B2FB3278C31450B0800010008002400BB
:101F40009501960194012630950001309600970185
:101F5000FE30930020005E082400920020009111C2
:101F60002100911508002400950196019401263066
:101F7000950096019701FE30930020005E08240032
:101F80009200200091112100911508004908B90024
:101F90000130B9054936BA000130BA054908F000E8
:101FA000F036F03670082100C2000130C205200072
:101FB0004908F000F036F036F03670082100C30012
:101FC0000130C3052000490E0F392100C400013043
:101FD000C40520004908F0000530F036890BED2FCC
:101FE0007008BB000130BB054908F0000730F0362F
:101FF000890BF72F70082100C5000130C5050800C6
:102000008C31172C8C311E2C8C31232C8C31282CAC
:102010008C312D2C8C31302C8C31CA2C8C31CA2C2B
:102020008C31CA2C8C31CA2C8C31332C8C31362C0F
:102030008C31392C8C313C2C8C313F2C8C31422C06
:102040008C31452C8C31482C8C314B2C8C314E2CC6
:102050008C31512C8C31542C8C31572C8C315A2C86
:102060008C315D2C8C31602C8C31632C8C316F2C3D
:102070008C317B2C8C31872C8C31A22C8C31A52C73
:102080008C31AE2C8C31B72C81317F29813196294E
:102090008131A4298131B3298031E7288031FE289C
:1020A00081310C2981311A298B314E2B8B316C2BCC
:1020B0008B31602B8B31732B8E31F92E8F31162F94
:1020C0008F311D2F8F31212F8E31812E8E319E2EFB
:1020D0008E31A52E8E31A92E8C31EF2C8D310C2D09
:1020E0008D31132D8D31172DFF3FFF3FFF3FFF3FF8
:10270000FF3FFF3FFF3FFF3F03304805CB004B0B30
:10271000952B4308031D8F2B22000E110800220069
:102720000E1501302000C300080048080339031DBE
:1027300008003F08031D080043088D31F7250800F5
:1027400003304705CB004B0BB12B4208031DAB2BCD
:1027500022008E10080022008E1401302000C200DA
:10276000080047080339031D08003F08031D08003F
:1027700042088D31A025080003304605CB004B0BE5
:10278000CD2B4108031DC72B22000E10080022008C
:102790000E1401302000C100080046080339031D53
:1027A00008003F08031D080041088D314925080035
:1027B000F10031009518D92B151771089100703070
:1027C000920094017008930003108B1B03148B1369
:1027D000151555309600AA30960095149518EE2BD5
:1027E000151103188B170800131221005A08F10065
:1027F0005908F00008249331FD2B21005708580494
:102800000319080058088A0057080A009431080084
:102810002800131D122C13107108920070089100EB
:102820001314080071089200700891000800302C01
:10283000240B08008030B501B50AC700C8018331F8
:10284000ED238131D4292408031D08004030B5014F
:10285000C700C8018331ED238131D429B5010800B7
:1028600021003508003A0319182C013A0319232CCA
:102870002E2C0800BB249431842494317B24943181
:10288000D124943162249431682494314D249431BC
:10289000C9249431D5249431EA2C04303E009B00A5
:1028A00001309C009D019E019F010230A000A830D4
:1028B000A100A200A3009D309A00200093102100E7
:1028C0009314080010302000DE005E35DE000800A2
:1028D00024009501960194012630950096019701F8
:1028E000FE30930020005E08240092002000911129
:1028F0002100911508006030320099009B019D0174
:1029000007309F009E01080022008C018D018E017E
:10291000373021008C00D0308D00FF308E00230036
:102920008E018D0120308C00103024008D003F304E
:102930008C00CC308E0025008C0120308D008E0163
:102940003C002008E0390E38A0002108E0390F389B
:10295000A1002908E0391538A9002808E039143801
:10296000A8003D001F08E03919389F001E08E03913
:1029700018389E000800403032009100F23092007A
:1029800046309300F83094002030950019309600BE
:102990000800FF3020009E009D01911004309F0030
:1029A0000800163021009700080004303E00910016
:1029B0009201013093009400950002309600A830F7
:1029C0009700980099009D3090002000131021007E
:1029D0001314080028009401E0309200C0309100E8
:1029E00012082100DA00D901280011082100D904B9
:1029F00020001312210013160330C7000030C80056
:102A00008431162401302800930008009725200007
:102A1000931008000E252000131008002100390B28
:102A2000182D00303002323003192F02031C080029
:102A3000AF01B001B90120003908031D4A2D2C084F
:102A40002007D2002D08213DD3002E08223DD400BE
:102A50002F08233DD500AF005408AE005308AD0049
:102A60005208AC000830F001F100212695312B0806
:102A7000803AD2002F08803A5202031D7C2D2E0886
:102A80002A02031D7C2D2D082902031D7C2D2C08F4
:102A900028027C2D2308F3002208F2002108F1000F
:102AA0002008F0002F08F7002E08F6002D08F5008A
:102AB0002C08F4008826953173082000AF007208B6
:102AC000AE007108AD007008AC000830F001F100F4
:102AD000212695312B08F3002A08F2002908F1007D
:102AE0002808F0002F08F7002E08F6002D08F50042
:102AF0002C08F400262695310318952D2030F0017E
:102B0000F100212695313A0B8D2D2708AF002608BC
:102B1000AE002508AD002408942D2B08AF002A082C
:102B2000AE002908AD002808AC00D7270800210016
:102B30003908031DA22D00303002323003192F0254
:102B4000031C0800AF01B001B901B90A200039081F
:102B5000031DD52D20082C02DA0021082D3BDB00B7
:102B600022082E3BDC0023082F3BDD00AF005C0871
:102B7000AE005B08AD005A08AC001030F001F10067
:102B8000212695312F08803ADA002708803A5A0228
:102B9000031D062E26082E02031D062E25082D02D3
:102BA000031D062E24082C02062E2308D500220819
:102BB000D4002108D3002008D2002F08D9002E0805
:102BC000D8002D08D7002C08D600E32795315508EA
:102BD000AF005408AE005308AD005208AC001030EE
:102BE000F001F100212695312F08F3002E08F200A4
:102BF0002D08F1002C08F0002708F7002608F60041
:102C00002508F5002408F4002626953103181F2E08
:102C10004030F001F100212695313A0B172E2B0898
:102C2000AF002A08AE002908AD0028081E2E27088C
:102C3000AF002608AE002508AD002408AC00D72759
:102C400008007008B2047108B30408008030F8016D
:102C5000F9017205FA007F307305FB007A047904EC
:102C60007804031D372EF001F101F201F3018030E9
:102C7000F801F9017605FA007F307705FB007A0448
:102C800079047804031D482EF401F501F601F701DB
:102C9000F31F5F2E8030F801F901FA01FB00700884
:102CA000F8027108F93B7208FA3B7308FB3B7B089A
:102CB000F3007A08F2007908F1007808F000F71FB5
:102CC000762E8030F801F901FA01FB007408F80251
:102CD0007508F93B7608FA3B7708FB3B7B08F70061
:102CE0007A08F6007908F5007808F4008030F306D9
:102CF000F70677087302031D080076087202031DA9
:102D0000080075087102031D0800740870020800AD
:102D10007308F8008030F8057335FA00F21B7A1456
:102D20007A0803199B2E7A0F992EF001F101F20116
:102D3000F301F2179E2EF001F101F201F301770881
:102D4000F9008030F90579087806031D7817773582
:102D5000F900F61B791479080319B62E790FB42EF1
:102D6000F401F501F601F701F617B92EF401F501AA
:102D7000F601F7017A0879020318E02E781FC22EB7
:102D80008030F8067A08FB007908FA007B08F90021
:102D90007008FB007408F0007B08F4007108FB0069
:102DA0007508F1007B08F5007208FB007608F20058
:102DB0007B08F6007308FB007708F3007B08F70038
:102DC000FB017908CA00CB014B08CD007A084A0202
:102DD000CC00031CCD034D08803ACE0080304E025B
:102DE000031DF42E1A304C02031C152F73087204B5
:102DF000710470040319FE2E0130FF2E0030FB0019
:102E0000F001F101F201F3017908FA00192F7B1C9E
:102E10000D2F7B360138FB000E2FFB367018FB1789
:102E2000F337F20CF10CF00CFA0A79087A02031C61
:102E3000072F781B3C2F7A08031D232FF001F10187
:102E4000F201F30108007408F0077508F13D7608F7
:102E5000F23D7708F33D731CA52F7B1C332F7B3687
:102E60000138FB00342FFB367018FB17F337F20CD8
:102E7000F10CF00CFA0AA52F7308803A2000CA0062
:102E80007708803A4A02031D4F2F76087202031D0D
:102E90004F2F75087102031D4F2F7408700203181D
:102EA0007E2FFF30CA00CB00CC00CD00700874022A
:102EB000CE007108753BCF007208763BD0007308D6
:102EC000773BD1004E08CA074F08CB3D5008CC3D98
:102ED0005108CD3D4D08F3004C08F2004B08F100BD
:102EE0004A08F0008030F806FB09FB0F862F0130FE
:102EF000F0070030F13DF23DF33D862F7408F002FB
:102F00007508F13B7608F23B7708F33B73087204CF
:102F100071047004031DA32F7B08031DA32FF00170
:102F2000F101F201F3010800F035F10DF20DF30D9E
:102F3000FB1B70147B1C9F2F0314FB0DA02FFB3574
:102F40007A08031DFA03F21F942FF901FB1FB02F1B
:102F50007B087F3903197018AE2FB02FF901F90AD9
:102F600079080319C12F0130F0070030F13DF23D1F
:102F7000F33D731CC12FF337F20CF10CF00C7A0FF8
:102F8000FA0A7A0A031D7A08031DCD2FF001F10118
:102F9000F201F3017A080319F8017A1CD12FF21714
:102FA000D22FF2137A36F300F81BF317080030081B
:102FB0003205F00031083305F100700403190800F0
:102FC00022008D1208008030D5065908F3005808F9
:102FD000F2005708F1005608F0005508F7005408B1
:102FE000F6005308F5005208F40088267308200004
:102FF000D5007208D4007108D3007008D200080010
:020000040001F9
:08000E008CFFF2F7FFDFFFFF9A
:00000001FF
