:020000040000FA
:1000000080313028FF3F08007E1480310B1F2E28DE
:100010002100931C12282000931C12289431FA24EA
:1000200080312E282100131C1C282000131C1C28A2
:100030009531042580312E282100911D262820008D
:10004000911D26288A31332280312E282100131E4B
:100050002E282000131E2E288931AA217E10090087
:10006000803132285530DF00203084000030850098
:100070002A308931A4218031A030840000308500ED
:100080002B308931A42180317E10200047288B310C
:10009000182380318B170B17DC302100CB00113077
:1000A000CC0023248031682080310E158E140E146C
:1000B000282480316520803121004A0B5C28CA0148
:1000C00009248031C12080315C2822008D1608006F
:1000D0002000C901C801C601B001B101B201B301DC
:1000E000AC01AD01AE01AF01A801A901AA01AB01AC
:1000F000A401A501A601A7010130A000A101A20150
:10010000A301C301C201C1012100C9012000BB013B
:100110002100C801C701C6012000BA01B901C00110
:10012000BF01BE01BD01BC012100B301B401080043
:1001300048080339031D08003F08031DA628370897
:100140004306031908004308B700632B3F08340235
:10015000031C080037084306031908004308370248
:10016000031CB70A37084302031CB703370863238D
:1001700080312000370843060130031DC028FB2BC7
:10018000042C20003F080319D828982080313322FE
:1001900080310922803120003408B40A2100DA00BD
:1001A00020003F0821005A02031CD8282000B40177
:1001B00021004208C20ADA000B305A02031C080070
:1001C000C201E62080317E21803131292629033089
:1001D000200048052100CF00023A031DF228C1018A
:1001E000C10A012A0330200048052100CF00033A4C
:1001F000031D080002302100C10008001230E62172
:100200004B08CF004C08D000D036CF0CD036CF0CE6
:100210004F082000C300080020000E1D0800013018
:10022000C300CB218031C81D1629D5210330210000
:10023000C100080020000E190800C3010230CB21C4
:100240008031481EFA28D5218031FA2841088400DF
:10025000043004020318080091310435B43E8200D2
:10026000080072290330200046052100CF00023A21
:10027000031D3D29BF01BF0A012A033020004605A6
:100280002100CF00033A031D080002302100BF0007
:1002900008001030E6214B08CF004C08D000D036C3
:1002A000CF0CD036CF0C4F082000C1000800200032
:1002B0000E1C08000130C1001030CB218031C61D5A
:1002C0006229D52103302100BF00080020000E184C
:1002D0000800C1012030CB218031461E4529D5219F
:1002E0008031452921003F088400043004020318AE
:1002F000080090310435F03E82000800BF29033029
:10030000200047052100CF00023A031D8A29C001C1
:10031000C00A012A0330200047052100CF00033A1C
:10032000031D080002302100C00008001130E62142
:100330004B08CF004C08D000D036CF0CD036CF0CB5
:100340004F082000C200080020008E1C0800013069
:10035000C2000430CB218031C71DAF29D521033025
:100360002100C000080020008E180800C2010830DB
:10037000CB218031471E9229D5218031922921003D
:10038000400884000430040203180800903104354A
:10039000F83E820008002100CD002000C5042100A5
:1003A0008030CB01CC009431F22C20003008320593
:1003B0002100CB002000310833052100CC004B0880
:1003C0004C040319080022008D1208002100CE0001
:1003D000CD00CD0DCD0D1D084D0603394D069D00F8
:1003E0001D140D30890BF229000021009D149D1869
:1003F000F7291C08CC00CB011B08CB070318CC0A3B
:10040000080001309D00E0309E009F019B019C018F
:100410000800200046080339031D08003F08031D9B
:10042000182A35084106031908004108B5005D2A5D
:100430003F083402031C0800350841060319080070
:1004400041083502031CB50A35084102031CB503F7
:1004500035085D2280312000350841060430031D37
:10046000322AFB2B042C200047080339031D080007
:100470003F08031D422A36084206031908004208B5
:10048000B600E02A3F083402031C08003608420682
:100490000319080042083602031CB60A3608420255
:1004A000031CB6033608E0228031200036084206DD
:1004B0000230031D5C2AFB2B042C2100D9005908B3
:1004C000031D762A22000E1455303C008F00AA30FE
:1004D0008F000F10E0303D00A00555303C008F002C
:1004E000AA308F000F1426009301080065305902CE
:1004F000031C7C2A6430D90025001708031D942AA8
:1005000055303C008F00AA308F000F103D002008AE
:10051000E0390E38A00055303C008F00AA308F0023
:100520000F148F302600930021005908FF3ED100A0
:10053000D201D135D20D20003C082100CB00C830BB
:10054000CC01CD00CE01E62380312B30D3008430A6
:10055000D4004B085307D5004C08543DD60055082D
:10056000510784005608523D8500003FD700013FE7
:10057000D80058082600920021005908FF3ED100FB
:10058000D201D135D20D20003C082100CB00C8306B
:10059000CC01CD00CE01E6232B30D3008430D40033
:1005A0004B085307D5004C08543DD6005508510759
:1005B00084005608523D850000082600910008007E
:1005C0002100D9005908031DF92A22008E14553044
:1005D0003C008F00AA308F000F10E0303D00A105D5
:1005E00055303C008F00AA308F000F142500970172
:1005F000080065305902031CFF2A6430D900250029
:100600001708031D172B55303C008F00AA308F00B0
:100610000F103D002108E0390D38A10055303C0095
:100620008F00AA308F000F148F3025009700210013
:100630005908FF3ED100D201D135D20D20003D082E
:100640002100CB00C830CC01CD00CE01E6238031A3
:100650002B30D3008430D4004B085307D5004C080E
:10066000543DD6005508510784005608523D850078
:10067000003FD700013FD800580825009600210010
:100680005908FF3ED100D201D135D20D20003D08DE
:100690002100CB00C830CC01CD00CE01E6232B30A9
:1006A000D3008430D4004B085307D5004C08543D88
:1006B000D6005508510784005608523D85000008B1
:1006C0002500950008002100D9005908031D7C2B46
:1006D00022000E1555303C008F00AA308F000F10FD
:1006E000E0303D00A20555303C008F00AA308F005D
:1006F0000F1425009301080065305902031C822B5A
:100700006430D90025001308031D9A2B55303C0096
:100710008F00AA308F000F103D002208E0390C38FE
:10072000A20055303C008F00AA308F000F148F308C
:100730002500930021005908FF3ED100D201D13598
:10074000D20D20003E082100CB00C830CC01CD00E6
:10075000CE01E62380312B30D3008430D4004B0807
:100760005307D5004C08543DD60055085107840066
:100770005608523D8500003FD700013FD800580879
:100780002500920021005908FF3ED100D201D13549
:10079000D20D20003E082100CB00C830CC01CD0096
:1007A000CE01E6232B30D3008430D4004B0853070E
:1007B000D5004C08543DD600550851078400560812
:1007C000523D85000008250091000800CF01D001AE
:1007D0004B1CEE2B4D08CF074E08D03DCD35CE0D2E
:1007E000CC36CB0C4B084C04031DE82B5008CC0036
:1007F0004F08CB0008002100CE004E092000C405A0
:100800004030CB218031D5292100CB002000C40409
:100810000800003030020A3003192F020318132C8D
:10082000AF0A0319B00A9331CF2380319431A52444
:100830008031943121248031943184248031943169
:1008400042249431632C4C08B6004B08B5000800D4
:10085000280013140800F5340334EB340334E03477
:100860000334D6340334CC340334C2340334B734C1
:100870000334AD340334A3340334993403348E3455
:100880000334843403347A340334703403346634E8
:1008900003345B34033451340334473403343D347C
:1008A000033432340334283403341E340334143410
:1008B000033409340334FF340234F5340234EB34A6
:1008C0000234E1340234D6340234CC340234C2343B
:1008D0000234B8340234AD340234A33402349934CF
:1008E00002348F340234843402347A340234703463
:1008F0000234663402345C340234513402344734F6
:1009000002343D34023433340234283402341E3489
:100910000234143402340A340234FF340134F5341E
:100920000134EB340134E1340134D7340134CC34B4
:100930000134C2340134B8340134AE340134A33448
:100940000134993401348F340134853401347B34DB
:10095000013470340134663401345C34013452346F
:100960000134473401343D34013433340134293403
:1009700001341E340134143401340A340134003497
:100980000134F6340034EB340034E1340034D7342D
:100990000034CD340034C2340034B8340034AE34C2
:1009A0000034A4340034993400348F340034853456
:1009B00000347B34003471340034663400345C34E9
:1009C000003452340034483400343D34003433347D
:1009D0000034293400341F340034143400340A3411
:1009E000003400340034FF340334FE340334FD3467
:1009F0000334FC340334FA340334F9340334F63466
:100A00000334F4340334F2340334EF340334EC3479
:100A10000334E8340334E5340334E1340334DD349F
:100A20000334D9340334D5340334D0340334CC34D0
:100A30000334C7340334C1340334BC340334B63410
:100A40000334B1340334AB340334A43403349E345C
:100A5000033498340334913403348A3403348334B4
:100A600003347B340334743403346C34033464341B
:100A700003345C340334543403344C34033443348B
:100A800003343A34033431340334283403341F3408
:100A90000334163403340C34033402340334F8348E
:100AA0000234EE340234E4340234D9340234CF3424
:100AB0000234C4340234B9340234AE340234A234C1
:100AC0000234973402348B3402347F34023473346A
:100AD0000234673402345B3402344E34023442341C
:100AE000023435340234283402341B3402340D34D9
:100AF000023400340234F2340134E5340134D734A2
:100B00000134C9340134BA340134AC3401349D3475
:100B100001348F340134803401347134013462344F
:100B20000134523401344334013433340134233436
:100B300001341434013403340134F3340034E33425
:100B40000034D2340034C2340034B1340034A03420
:100B500000348F3400347D3400346C3400345A3423
:100B6000003448340034373400342534003412342F
:100B7000003400340034FF340334FF340334FE34D3
:100B80000334FD340334FC340334FB340334FA34CB
:100B90000334F8340334F7340334F5340334F334D2
:100BA0000334F0340334EE340334EB340334E834E8
:100BB0000334E5340334E1340334DE340334DA340B
:100BC0000334D6340334D2340334CD340334C9343B
:100BD0000334C4340334BF340334BA340334B43478
:100BE0000334AF340334A9340334A33403349D34C1
:100BF0000334963403349034033489340334823418
:100C000003347A340334733403346B34033463347D
:100C100003345B340334533403344B3403344234ED
:100C200003343934033430340334273403341D346B
:100C300003341334033409340334FF340234F534F9
:100C40000234EA340234E0340234D5340234CA3493
:100C50000234BE340234B3340234A73402349B3439
:100C600002348F34023482340234763402346934EC
:100C700002345C3402344F340234413402343434AC
:100C8000023426340234183402340A340234FB3479
:100C90000134ED340134DE340134CF340134C03456
:100CA0000134B0340134A03401349134013481343E
:100CB000013470340134603401344F3401343E3433
:100CC00001342D3401341C3401340A340134F93434
:100CD0000034E7340034D5340034C2340034B03446
:100CE00000349D3400348A34003477340034643462
:100CF0000034503400343C3400342934003414348B
:100D0000003400340034FF340334FF340334FF3440
:100D10000334FE340334FE340334FD340334FC3432
:100D20000334FB340334FA340334F9340334F73432
:100D30000334F5340334F4340334F1340334EF343E
:100D40000334ED340334EA340334E7340334E53454
:100D50000334E1340334DE340334DA340334D73477
:100D60000334D3340334CF340334CA340334C634A5
:100D70000334C1340334BC340334B7340334B134E2
:100D80000334AC340334A6340334A034033499342C
:100D90000334933403348C340334853403347E3485
:100DA0000334773403346F340334673403345F34EB
:100DB0000334573403344E340334463403343D345F
:100DC0000334333403342A340334203403341634E4
:100DD00003340C34033402340334F7340234EC3477
:100DE0000234E1340234D6340234CA340234BF341B
:100DF0000234B2340234A63402349A3402348D34CC
:100E0000023480340234723402346534023457348C
:100E10000234493402343B3402342C3402341D345D
:100E200002340E340234FF340134F0340134E0343F
:100E30000134D0340134BF340134AF3401349E3432
:100E400001348D3401347C3401346A340134583433
:100E500001344634013434340134213401340E3445
:100E60000134FB340034E7340034D4340034C0346B
:100E70000034AB34003497340034823400346D34A1
:100E8000003458340034423400342C3400341634E6
:100E9000003400340034FF340334FF340334FF34AF
:100EA0000334FF340334FE340334FE340334FD349E
:100EB0000334FD340334FC340334FB340334FA3498
:100EC0000334F9340334F7340334F6340334F4349C
:100ED0000334F2340334F0340334EE340334EC34AA
:100EE0000334EA340334E7340334E4340334E134C0
:100EF0000334DE340334DA340334D7340334D334E4
:100F00000334CF340334CB340334C6340334C13414
:100F10000334BD340334B7340334B2340334AD3452
:100F20000334A7340334A13403349B34033494349E
:100F300003348E340334873403347F3403347834F9
:100F40000334703403346834033460340334583465
:100F500003344F340334463403343D3403343434DF
:100F600003342A34033420340334163403340B346A
:100F7000033401340334F6340234EA340234DF3407
:100F80000234D3340234C7340234BA340234AD34B8
:100F90000234A03402349334023486340234783478
:100FA00002346A3402345B3402344C3402343D344B
:100FB00002342E3402341E3402340E340234FE3431
:100FC0000134EE340134DD340134CB340134BA342D
:100FD0000134A8340134963401348434013471343A
:100FE00001345E3401344A3401343734013423345B
:100FF00001340E340134FA340034E5340034CF3493
:101000000034BA340034A43400348D3400347634DF
:1010100000345F3400344834003430340034183441
:10102000003400340034FF340334FF340334FF341D
:101030000334FF340334FF340334FE340334FE340A
:101040000334FE340334FD340334FC340334FC3401
:101050000334FB340334FA340334F9340334F834FE
:101060000334F6340334F5340334F3340334F13405
:101070000334EF340334ED340334EB340334E93414
:101080000334E6340334E3340334E0340334DD342E
:101090000334DA340334D6340334D2340334CE3454
:1010A0000334CA340334C6340334C1340334BC3487
:1010B0000334B7340334B2340334AC340334A734C8
:1010C0000334A13403349A340334943403348D3418
:1010D0000334863403347F340334773403346F3479
:1010E0000334673403345F340334563403344D34EB
:1010F0000334443403343B3403343134033427346D
:1011000003341C3403341234033407340334FC3402
:101110000234F0340234E4340234D8340234CB34B0
:101120000234BE340234B1340234A434023496346E
:10113000023488340234793402346A3402345B3441
:1011400002344C3402343C3402342B3402341B3429
:1011500002340A340234F8340134E7340134D5342B
:101160000134C2340134B03401349C340134893444
:10117000013475340134613401344C340134373472
:101180000134213401340B340134F5340034DE34BD
:101190000034C7340034B034003498340034803420
:1011A0000034673400344E340034343400341A349C
:1011B000003400340034FF340334FF340334FF348C
:1011C0000334FF340334FF340334FF340334FE3478
:1011D0000334FE340334FE340334FD340334FD346D
:1011E0000334FC340334FC340334FB340334FA3466
:1011F0000334F9340334F8340334F7340334F53466
:101200000334F4340334F2340334F0340334EE346E
:101210000334EC340334EA340334E7340334E53480
:101220000334E2340334DF340334DC340334D8349D
:101230000334D5340334D1340334CD340334C934C6
:101240000334C4340334C0340334BB340334B634FD
:101250000334B0340334AB340334A53403349F3443
:10126000033498340334923403348B34033483349A
:1012700003347C340334743403346C340334643402
:1012800003345B34033452340334493403343F347D
:101290000334353403342B3403342034033416340C
:1012A00003340A340334FF340234F3340234E634B2
:1012B0000234DA340234CD340234BF340234B2346E
:1012C0000234A43402349534023486340234773440
:1012D000023467340234573402344734023436342B
:1012E0000234253402341334023401340234EE342F
:1012F0000134DB340134C8340134B4340134A03453
:1013000001348B34013476340134603401344A348E
:101310000134343401341D34013405340134ED34E6
:101320000034D5340034BC340034A3340034893460
:1013300000346E34003454340034383400341C34F7
:10134000003400340034FF3F640080010131890B18
:10135000A5290034131221003808F1003708F000E5
:10136000BE218931B329210035083604031908004C
:1013700036088A0035080A00893108002800131D44
:10138000C829131071089200700891001314080006
:101390007108920070089100080046085530031D3E
:1013A000E4293C008F00AA308F000F102908E03993
:1013B0001438A9002808E0391538A80055308F00E6
:1013C000AA308F000F14F6293C008F00AA308F003E
:1013D0000F102908E0391538A9002808E039143819
:1013E000A80055308F00AA308F000F142100470B42
:1013F000FC2924008D12FE2924008D1622008D1652
:101400002100480B062A0C228931082A2022893122
:10141000490B080001000800240095019601940181
:1014200026309500013096009701FE309300200091
:101430005E082400920020009111210091150800FF
:10144000240095019601940126309500960197019C
:10145000FE30930020005E082400920020009111CD
:101460002100911508009111240011082000D000DE
:101470002400141D422A941A161F402A03304A2AB7
:1014800001304A2A941A462A00304A2A200050087D
:10149000DF0002304E222400151608002000CF0085
:1014A000852A2100C301C30A080020005F08B80094
:1014B0006C2A20005F08CD0038088C3106248A3160
:1014C0002000B80A6C2A21004308003A0319592A5F
:1014D000013A0319552A592A2100C3010800380886
:1014E0009A22240091002000B80A08002100450B30
:1014F0007F2A90228A3194228A312100C501440B2F
:10150000080097222100C40108004F08840004301D
:1015100004020318080091310435BC3E8200080023
:101520002000B201B301080022008D16080020003F
:10153000C5010800F100EF2A4908EB2A4808EB2A08
:101540004708EB2A4608EB2A3108EB2A3008EB2A39
:101550003308AB2A3208F20001302100C500F92A15
:101560004508F20001302100C400F92A4408EB2AA2
:101570002F08EB2A2E08EB2A2D08EB2A2C08EB2A41
:101580002B08EB2A2A08EB2A2908EB2A2808EB2A41
:101590002708EB2A2608EB2A2508EB2A2408EB2A41
:1015A0002308EB2A2208EB2A2108EB2A2008EB2A41
:1015B0004308EB2A4208EB2A4108EB2A4008EB2AB1
:1015C0003F08EB2A3E08EB2A3D08EB2A3C08EB2AB1
:1015D0005B30EB2A1130F200F92AF201F92A710886
:1015E0008400723004020318ED2A90310435003E65
:1015F000820080307102031C072B20003B08031D72
:10160000042B7108803E052B71080923F200720833
:101610000800F0000C2B20006400310095180B2B03
:101620001517700891007030920015141308080007
:10163000BB238B3184238B317B238B31D1238B31A3
:1016400040238B3168238B312B238B31C9238B3182
:10165000D5238B31EA2B04303E009B0001309C00E7
:101660009D019E019F010230A000A830A100A200B0
:10167000A3009D309A0020009310210093140800CD
:1016800010302000DE0021000C148C140C152400F6
:101690000C148C140C158C1520000C18522B5E1495
:1016A00024000C1020008C18582BDE1424008C1001
:1016B00020000C195E2B5E1524000C1120008C19E3
:1016C000642BDE1524008C1120005E35DE0008003E
:1016D000240095019601940126309500960197010A
:1016E000FE30930020005E0824009200200091113B
:1016F0002100911508006030320099009B019D0186
:1017000007309F009E01080022008C018D018E0190
:10171000373021008C00D0308D00FF308E00230048
:101720008E018D0120308C00103024008D003F3060
:101730008C00CC308E0025008C0120308D008E0175
:101740003C002008E0390E38A0002108E0390F38AD
:10175000A1002908E0391538A9002808E039143813
:10176000A8003D001F08E03919389F001E08E03925
:1017700018389E000800403032009100F23092008C
:1017800046309300F83094002030950019309600D0
:101790000800FF3020009E009D01911004309F0042
:1017A0000800163021009700080004303E00910028
:1017B0009201013093009400950002309600A83009
:1017C0009700980099009D30900020001310210090
:1017D0001314080028009401E0309200C0309100FA
:1017E00012082100B800B701280011082100B70431
:1017F00020001312210013160330CB000030CC0060
:10180000843123240130280093000800CE00B12C3D
:101810004D08C900C6278931CD218C31BB2C4D081C
:10182000C800CE248C31BB2C4D08C700D5268C3186
:10183000BB2C4D08C6004D278C31BB2C4D08B10088
:10184000BB2C4D08B000BB2C4D08AF00BB2C4D0885
:10185000AE00BB2C4D08AD00BB2C4D08AC00BB2C22
:101860004D08AB00BB2C4D08AA00BB2C4D08A900AD
:10187000BB2C4D08A800BB2C4D08A700BB2C4D0865
:10188000A600BB2C4D08A500BB2C4D08A400BB2C0A
:101890004D08A300BB2C4D08A200BB2C4D08A10095
:1018A000BB2C4D08A000BB2C4D08C3006530430283
:1018B000031C5C2C6430C300913198218C31BB2C0B
:1018C0004D08C20065304202031C682C6430C2001F
:1018D00091317C218C31BB2C4D08C1006530410217
:1018E000031C742C6430C100913160218C31BB2CFD
:1018F0004D08C0004008F0000A30F101F200F30189
:10190000B4268C3171082100B4007008B300003097
:101910003402063003193302031CBB2CFB30B3071F
:10192000FF30B43DBB2C4D08BF00BB2C4D08BE00A2
:1019300008303E02031CBB2C0730BE00BB2C4D08F8
:10194000BD0008303D02031CBB2C0730BD00BB2C82
:101950004D08BC0008303C02031CBB2C0730BC0007
:10196000BB2C4E088400223004020318BB2C91319A
:101970000435003E8200803020004E02031C080027
:101980003B08031DC92C4D08F0004E08803E9131E4
:1019900044294D08F0004E089131442955303C004F
:1019A0008F00AA308F000F10E0303D00A2055530A7
:1019B0003C008F00AA308F000F14250093010D2DDD
:1019C00023000E1122000E1521000E1155303C008F
:1019D0008F00AA308F000F103D002208E0390C382C
:1019E000A20055303C008F00AA308F000F14C9268A
:1019F0008C31003036268C31272D23000E1121002A
:101A00000E1125000E11272D21000E1523000B2D80
:101A100023000E1121000E15272D20004808033940
:101A2000CB00CC014C08003A0319172D272D4B0889
:101A30008400043004020318272D91310435D43E6C
:101A4000820024000E11080024000E15080020005A
:101A500048080439CB00CC014C08003A0319312D59
:101A6000392D4B08003A0319212D043A0319242D6E
:101A7000392D08002000CA004A08031D532D2200FA
:101A80000E1455303C008F00AA308F000F10E0304C
:101A90003D00A00555303C008F00AA308F000F1488
:101AA00026009301080065304A02031C592D64305A
:101AB000CA0025001708031D712D55303C008F000A
:101AC000AA308F000F103D002008E0390E38A0002A
:101AD00055303C008F00AA308F000F148F30260045
:101AE000930020004A08FF3EF600F701F635F70D97
:101AF0003C08F000C830F101F200F301B4268C314B
:101B00002B30F8008430F90070087807FA0071086B
:101B1000793DFB007A08760784007B08773D8500D5
:101B2000003FFC00013FFD002600920020004A0813
:101B3000FF3EF600F701F635F70D3C08F000C8301F
:101B4000F101F200F301B4262B30F8008430F900E3
:101B500070087807FA007108793DFB007A0876076B
:101B600084007B08773D850000082600910008006E
:101B70002000CA004A08031DD12D22008E145530C2
:101B80003C008F00AA308F000F10E0303D00A1050F
:101B900055303C008F00AA308F000F1425009701AC
:101BA000080065304A02031CD72D6430CA002500A6
:101BB0001708031DEF2D55303C008F00AA308F0011
:101BC0000F103D002108E0390D38A10055303C00D0
:101BD0008F00AA308F000F148F302500970020004F
:101BE0004A08FF3EF600F701F635F70D3D08F00014
:101BF000C830F101F200F301B4268C312B30F8002B
:101C00008430F90070087807FA007108793DFB000C
:101C10007A08760784007B08773D8500003FFC004A
:101C2000013FFD002500960020004A08FF3EF60017
:101C3000F701F635F70D3D08F000C830F101F2006C
:101C4000F301B4262B30F8008430F90070087807CF
:101C5000FA007108793DFB007A08760784007B085A
:101C6000773D850000082500950008002000CA0087
:101C70004A08031D4F2E22000E1555303C008F00E0
:101C8000AA308F000F10E0303D00A20555303C0017
:101C90008F00AA308F000F142500930108006530D3
:101CA0004A02031C552E6430CA0025001308031D88
:101CB0006D2E55303C008F00AA308F000F103D0074
:101CC0002208E0390C38A20055303C008F00AA30C1
:101CD0008F000F148F302500930020004A08FF3E2C
:101CE000F600F701F635F70D3E08F000C830F101B7
:101CF000F200F301B4268C312B30F8008430F90067
:101D000070087807FA007108793DFB007A087607B9
:101D100084007B08773D8500003FFC00013FFD000B
:101D20002500920020004A08FF3EF600F701F63534
:101D3000F70D3E08F000C830F101F200F301B426BF
:101D40002B30F8008430F90070087807FA00710829
:101D5000793DFB007A08760784007B08773D850093
:101D60000008250091000800F401F501701CBC2E4C
:101D70007208F4077308F53DF235F30DF136F00CF7
:101D800070087104031DB62E7508F1007408F00088
:101D900008008F302500930003309200FF3091003F
:101DA0001F08FC3901389F00080055303C008F00A7
:101DB000AA308F000F10E0303D00A10555303C00E7
:101DC0008F00AA308F000F1425009701142F2300D5
:101DD0008E1022008E1421008E1055303C008F0092
:101DE000AA308F000F103D002108E0390D38A10006
:101DF00055303C008F00AA308F000F1441278C31E2
:101E00000030B8258C312E2F23008E1021008E102B
:101E100025008E102E2F21008E142300122F230058
:101E20008E1021008E142E2F200047080339CB007E
:101E3000CC014C08003A03191E2F2E2F4B088400AA
:101E40000430040203182E2F91310435CC3E820059
:101E500024008E10080024008E140800200047087B
:101E60000439CB00CC014C08003A0319382F402F1D
:101E70004B08003A0319282F043A03192B2F402F3F
:101E800008008F302500970003309600FF30950042
:101E90001F08F33904389F00080055303C008F00BC
:101EA000AA308F000F10E0303D00A00555303C00F7
:101EB0008F00AA308F000F14260093018C2F23006F
:101EC0000E1022000E1421000E1055303C008F0021
:101ED000AA308F000F103D002008E0390E38A00016
:101EE00055303C008F00AA308F000F14B9278C3179
:101EF00000303A258C31A62F23000E1021000E1041
:101F000025000E10A62F21000E1423008A2F230077
:101F10000E1021000E14A62F200046080339CB0016
:101F2000CC014C08003A0319962FA62F4B088400C9
:101F3000043004020318A62F91310435C43E8200F8
:101F400024000E10080024000E140800200046088B
:101F50000439CB00CC014C08003A0319B02FB82F3C
:101F60004B08003A0319A02F043A0319A32FB82FE6
:101F700008008F302600930003309200FF3091005C
:101F800025001F08CF3910389F0008004908B90004
:101F90000130B9054936BA000130BA054908F000E8
:101FA000F036F03670082100C6000130C60520006A
:101FB0004908F000F036F036F03670082100C7000E
:101FC0000130C7052000490E0F392100C80001303B
:101FD000C80520004908F0000530F036890BED2FC8
:101FE0007008BB000130BB054908F0000730F0362F
:101FF000890BF72F70082100C9000130C9050800BE
:102000008A319C2A8A319E2A8A31A02A8A31A22AC0
:102010008A31A42A8A31A62A8A31A82A8A31AA2A90
:102020008A31B02A8A31B62A8A31B82A8A31BA2A44
:102030008A31BC2A8A31BE2A8A31C02A8A31C22A10
:102040008A31C42A8A31C62A8A31C82A8A31CA2AE0
:102050008A31CC2A8A31CE2A8A31D02A8A31D22AB0
:102060008A31D42A8A31D62A8A31D82A8A31DA2A80
:102070008A31DC2A8A31DE2A8A31E02A8A31E22A50
:102080008A31E42A8A31E62A8A31ED2A8A31ED2A18
:102090008A31ED2A8A31ED2A8A31ED2A8A31ED2AF8
:1020A0008A31ED2A8A31ED2A8A31ED2A8A31ED2AE8
:1020B0008A31ED2A8A31ED2A8A31ED2A8A31ED2AD8
:1020C0008A31ED2A8A31ED2A8A31ED2A8A31ED2AC8
:1020D0008A31ED2A8A31ED2A8A31ED2A8A31ED2AB8
:1020E0008A31ED2A8A31ED2A8A31ED2A8A31ED2AA8
:1020F0008A31ED2A8A31ED2A8A31ED2A8A31ED2A98
:102100008A31ED2A8A31ED2A8A31ED2A8A31ED2A87
:102110008A31ED2A8A31ED2A8A31ED2A8A31ED2A77
:102120008A31ED2A8A31ED2A8A31ED2A8A31ED2A67
:102130008A31ED2A8A31ED2A8A31ED2A8A31ED2A57
:102140008A31ED2A8A31ED2A8A31ED2A8A31ED2A47
:102150008A31ED2A8A31ED2A8A31ED2A8A31ED2A37
:102160008A31ED2A8A31ED2A8A31ED2A8A31ED2A27
:102170008A31ED2A8A31ED2A8A31ED2A8A31ED2A17
:102180008A31ED2A8A31ED2A8A31ED2A8A31ED2A07
:102190008A31ED2A8A31ED2A8A31ED2A8A31ED2AF7
:1021A0008A31ED2A8A31ED2A8A31ED2A8A31ED2AE7
:1021B0008A31ED2A8A31ED2A8A31ED2A8A31ED2AD7
:1021C0008A31E82A8A31EA2A9431B42C9431BB2C22
:1021D0009431C12C9431C62C9431D22C9431E12C01
:1021E000813132298131492981315729813166294B
:1021F00081317F29813196298131A4298131B32907
:102200008C31082C8C310F2C8C31142C8C31192CE6
:102210008C311E2C8C31212C8C31BB2C8C31BB2C65
:102220008C31BB2C8C31BB2C8C31242C8C31272C49
:102230008C312A2C8C312D2C8C31302C8C31332C40
:102240008C31362C8C31392C8C313C2C8C313F2C00
:102250008C31422C8C31452C8C31482C8C314B2CC0
:102260008C314E2C8C31512C8C31542C8C31602C77
:102270008C316C2C8C31782C8C31932C8C31962CAD
:102280008C319F2C8C31A82CF100310095184529F8
:102290001517710891007030920094017008930036
:1022A00003108B1B03148B13151555309600AA30A1
:1022B0009600951495185A29151103188B170800C4
:1022C00003304605CB004B0B71294108031D6B29D8
:1022D00022000E10080022000E1401302000C10060
:1022E000080046080339031D08003F08031D0800C5
:1022F00041088D313A25080003304705CB004B0BD0
:102300008D294208031D872922008E100800220013
:102310008E1401302000C200080047080339031D55
:1023200008003F08031D080042088D31B825080049
:1023300003304805CB004B0BA9294308031DA329F3
:1023400022000E11080022000E1501302000C300EB
:10235000080048080339031D08003F08031D080052
:1023600043088E31362608008031E7288031FE2868
:1023700081310C2981311A298A31512A8A316F2AF7
:102380008A31632A8A31762A8F315F2F8F317C2FF1
:102390008F31832F8F31872F8E31E72E8F31042F8E
:1023A0008F310B2F8F310F2F8C31E02C8C31FD2C86
:1023B0008D31042D8D31082DCA01CA0A0800FF3F56
:10279000FF3FFF3FFF3FFF3FFF3FFF3FFF3F003057
:1027A00020000D1A01302100A500003020008E1BF2
:1027B00001302100A600003020000C1A0130210059
:1027C000A700003020000E1B01302100A8000030BF
:1027D00020008E1901302100A900CB014B08A53E35
:1027E000860087010108031D092C4B08AA3E8600BC
:1027F0000108810A803A7B3E031C1B2C4B08AA3E31
:102800008600053081004B08A03E86008101810AC8
:102810001B2C4B08AA3E8600870101088103803AE1
:102820007F3E03181B2C4B08AA3E860081014B08F3
:10283000A03E860081010530CB0A4B020318080038
:10284000EE2B382C230B08000230BC01BC0ACB0055
:10285000CC01F2248131D5292308031D0800BC01D5
:10286000CB01CB0ACC01F2248131D529BC0108006F
:1028700021003C08003A0319222C013A03192C2CA0
:10288000362C0800592C220B08002030BA01BA0A55
:10289000CB00CC01F2248131D5292208031D080088
:1028A0001030BA01CB00CC01F2248131D529BA0114
:1028B000080021003A08003A0319432C013A031991
:1028C0004D2C572C08007A2C240B08008030B901BD
:1028D000B90ACB00CC01F2248131D5292408031D8B
:1028E00008004030B901CB00CC01F2248131D52958
:1028F000B901080021003908003A0319642C013A93
:1029000003196E2C782C08009B2C210B0800083032
:10291000BB01BB0ACB00CC01F2248131D5292108AF
:10292000031D08000430BB01CB00CC01F22481312F
:10293000D529BB01080021003B08003A0319852C6A
:10294000013A03198F2C992C080032083402031D18
:10295000AB2C310833020318B02C0430BE00E72C36
:10296000B10A0319B20AE72CB101B201200B080029
:10297000BE01BE0A08002008031D08000230BE0088
:102980000800200B08000330BE0008002008031DCB
:1029900008000430B101B201BE01CB01CC00F22429
:1029A0008131D5290230B101B201CB01CC00F22432
:1029B00094312100200BDF2C0530BE00D02C0130DB
:1029C000CC2CB101B2012008031D0800DF2C3E0809
:1029D0008400063004020318080090310435E43EF8
:1029E000820008004B082000B20421004C0820009F
:1029F000B30408000E1E8E1A002D0E259431012DF1
:102A000097252000931008000E1E8E1A0A2D972578
:102A100094310B2D0E2520001310080021003D0BD2
:102A2000182D003030020A3003192F02031C080051
:102A3000AF01B001BD0120003908031D4A2D2C084B
:102A40002007D2002D08213DD3002E08223DD400BE
:102A50002F08233DD500AF005408AE005308AD0049
:102A60005208AC000830F001F100212694312B0807
:102A7000803AD2002F08803A5202031D7C2D2E0886
:102A80002A02031D7C2D2D082902031D7C2D2C08F4
:102A900028027C2D2308F3002208F2002108F1000F
:102AA0002008F0002F08F7002E08F6002D08F5008A
:102AB0002C08F4008826943173082000AF007208B7
:102AC000AE007108AD007008AC000830F001F100F4
:102AD000212694312B08F3002A08F2002908F1007E
:102AE0002808F0002F08F7002E08F6002D08F50042
:102AF0002C08F400262694310318952D2030F0017F
:102B0000F100212694313A0B8D2D2708AF002608BD
:102B1000AE002508AD002408942D2B08AF002A082C
:102B2000AE002908AD002808AC00D7270800210016
:102B30003D08031DA22D003030020A3003192F0278
:102B4000031C0800AF01B001BD01BD0A2000390817
:102B5000031DD52D20082C02DA0021082D3BDB00B7
:102B600022082E3BDC0023082F3BDD00AF005C0871
:102B7000AE005B08AD005A08AC001030F001F10067
:102B8000212694312F08803ADA002708803A5A0229
:102B9000031D062E26082E02031D062E25082D02D3
:102BA000031D062E24082C02062E2308D500220819
:102BB000D4002108D3002008D2002F08D9002E0805
:102BC000D8002D08D7002C08D600E32794315508EB
:102BD000AF005408AE005308AD005208AC001030EE
:102BE000F001F100212694312F08F3002E08F200A5
:102BF0002D08F1002C08F0002708F7002608F60041
:102C00002508F5002408F4002626943103181F2E09
:102C10004030F001F100212694313A0B172E2B0899
:102C2000AF002A08AE002908AD0028081E2E27088C
:102C3000AF002608AE002508AD002408AC00D72759
:102C400008007008B2047108B30408008030F8016D
:102C5000F9017205FA007F307305FB007A047904EC
:102C60007804031D372EF001F101F201F3018030E9
:102C7000F801F9017605FA007F307705FB007A0448
:102C800079047804031D482EF401F501F601F701DB
:102C9000F31F5F2E8030F801F901FA01FB00700884
:102CA000F8027108F93B7208FA3B7308FB3B7B089A
:102CB000F3007A08F2007908F1007808F000F71FB5
:102CC000762E8030F801F901FA01FB007408F80251
:102CD0007508F93B7608FA3B7708FB3B7B08F70061
:102CE0007A08F6007908F5007808F4008030F306D9
:102CF000F70677087302031D080076087202031DA9
:102D0000080075087102031D0800740870020800AD
:102D10007308F8008030F8057335FA00F21B7A1456
:102D20007A0803199B2E7A0F992EF001F101F20116
:102D3000F301F2179E2EF001F101F201F301770881
:102D4000F9008030F90579087806031D7817773582
:102D5000F900F61B791479080319B62E790FB42EF1
:102D6000F401F501F601F701F617B92EF401F501AA
:102D7000F601F7017A0879020318E02E781FC22EB7
:102D80008030F8067A08FB007908FA007B08F90021
:102D90007008FB007408F0007B08F4007108FB0069
:102DA0007508F1007B08F5007208FB007608F20058
:102DB0007B08F6007308FB007708F3007B08F70038
:102DC000FB017908CA00CB014B08CD007A084A0202
:102DD000CC00031CCD034D08803ACE0080304E025B
:102DE000031DF42E1A304C02031C152F73087204B5
:102DF000710470040319FE2E0130FF2E0030FB0019
:102E0000F001F101F201F3017908FA00192F7B1C9E
:102E10000D2F7B360138FB000E2FFB367018FB1789
:102E2000F337F20CF10CF00CFA0A79087A02031C61
:102E3000072F781B3C2F7A08031D232FF001F10187
:102E4000F201F30108007408F0077508F13D7608F7
:102E5000F23D7708F33D731CA52F7B1C332F7B3687
:102E60000138FB00342FFB367018FB17F337F20CD8
:102E7000F10CF00CFA0AA52F7308803A2000CA0062
:102E80007708803A4A02031D4F2F76087202031D0D
:102E90004F2F75087102031D4F2F7408700203181D
:102EA0007E2FFF30CA00CB00CC00CD00700874022A
:102EB000CE007108753BCF007208763BD0007308D6
:102EC000773BD1004E08CA074F08CB3D5008CC3D98
:102ED0005108CD3D4D08F3004C08F2004B08F100BD
:102EE0004A08F0008030F806FB09FB0F862F0130FE
:102EF000F0070030F13DF23DF33D862F7408F002FB
:102F00007508F13B7608F23B7708F33B73087204CF
:102F100071047004031DA32F7B08031DA32FF00170
:102F2000F101F201F3010800F035F10DF20DF30D9E
:102F3000FB1B70147B1C9F2F0314FB0DA02FFB3574
:102F40007A08031DFA03F21F942FF901FB1FB02F1B
:102F50007B087F3903197018AE2FB02FF901F90AD9
:102F600079080319C12F0130F0070030F13DF23D1F
:102F7000F33D731CC12FF337F20CF10CF00C7A0FF8
:102F8000FA0A7A0A031D7A08031DCD2FF001F10118
:102F9000F201F3017A080319F8017A1CD12FF21714
:102FA000D22FF2137A36F300F81BF317080030081B
:102FB0003205F00031083305F100700403190800F0
:102FC00022008D1208008030D5065908F3005808F9
:102FD000F2005708F1005608F0005508F7005408B1
:102FE000F6005308F5005208F40088267308200004
:102FF000D5007208D4007108D3007008D200080010
:020000040001F9
:08000E008CFFF2F7FFDFFFFF9A
:00000001FF
